:10000000002000100D0100008501000085010000A6
:1000100000000000000000000000000000000000E0
:10002000000000000000000000000000850100004A
:100030000000000000000000850100008D080000A5
:100040008501000085010000850100008501000098
:100050008501000085010000850100008501000088
:100060008501000085010000850100008501000078
:100070008501000085010000850100008501000068
:100080008501000085010000850100008501000058
:10009000850100007D02000085010000850100004F
:1000A0008501000085010000850100008501000038
:1000B0008501000085010000850100008501000028
:1000C00080B500AF0B4B00221A600B4B23221A6045
:1000D0000A4B0A4A126880218A431A60084B01229F
:1000E0001A60084B03221A60074B01221A60BD46B2
:1000F00080BDC046408004400880044038820440EF
:1001000044800440708004407480044080B584B012
:1001100000AF174BFB60174BBB60174A154BD31A48
:100120007B6007E0BB685A1CBA60FA68511CF96032
:1001300012781A707B685A1E7A60002BF2D10F4B2E
:10014000BB600F4A0D4BD31A7B6004E0BB685A1C9E
:10015000BA6000221A707B685A1E7A60002BF5D1B3
:10016000FFF7AEFF00F0DEFBBD4604B080BDC04629
:1001700070090000000000100000001000000010D6
:100180002401001080B500AFFEE7C04680B500AF87
:1001900000232E4A53602D4A13602C4A936000239B
:1001A0002B4A53602A4A1360294A9360294B294AF3
:1001B000126829490A431A60284B284A126801210B
:1001C0000A431A60254B254A126806218A431A60A1
:1001D000234B234A126801210A431A60204B204A0C
:1001E000126806218A431A601A4B1A4A1268802143
:1001F00049010A431A601B4B01221A601A4B1A4A22
:10020000126880210A431A60184B10221A60184B9A
:1002100038221A60174B01221A60134B124A1268D7
:1002200080218A431A60104B0F4A126803210A4347
:100230001A60104B07221A600F4B0F4A1268802178
:1002400089030A431A60BD4680BDC046980000106D
:100250000C0000108080044040000100A4400440D5
:10026000A8400440988004400C8000402880004052
:10027000008000400480004000E100E090B583B0C1
:1002800000AF104B1B687B607A680423134007D0D3
:100290000D4B1B68DBB20D4A101C191C00F01AF83C
:1002A0007A68022313400AD0094B9B68002B06D0C2
:1002B000054C074B181C00F033F8031C2360BD46A7
:1002C00003B090BD088000400080004098000010FE
:1002D0000C00001080B582B000AF78600A1CFB1CD7
:1002E0001A707B689B687F2B16D872B67B689B68F8
:1002F0005A1C7B689A607B681A68796808238A1898
:10030000D318FA1C12781A717B681B685A1C7F2359
:100310001A407B681A6062B6BD4602B080BDC04616
:1003200080B584B000AF78603B1C0F3300221A7098
:100330007B689B68002B17D072B67B689B685A1E3F
:100340007B689A607B6859683B1C0F337868082289
:1003500041188A1812791A707B685B685A1C7F23CF
:100360001A407B685A6062B63B1C0F331B78181C1E
:10037000BD4604B080BDC04680B500AF024B9B684F
:10038000181CBD4680BDC0469800001080B500AF67
:10039000024B9B68181CBD4680BDC0460C00001077
:1003A00080B582B000AF021CFB1D1A70094B1A68A1
:1003B0004023134004D0084BFA1D12781A6006E05F
:1003C000064AFB1D1B78101C191CFFF783FFBD4656
:1003D00002B080BD14800040008000400C0000107E
:1003E00080B500AF034B181CFFF79AFF031C181CC5
:1003F000BD4680BD9800001080B582B000AF786027
:1004000007E07B681B78181CFFF7CAFF7B68013385
:100410007B607B681B78002BF3D1BD4602B080BDAA
:1004200080B582B000AF78607B68002B07DB7B680B
:10043000092B04DC7B68DBB23033DBB20BE07B687A
:10044000092B07DD7B680F2B04DC7B68DBB23733BD
:10045000DBB200E07A23181CBD4602B080BDC04666
:1004600080B586B000AF786009237B613B1C083300
:100470005B221A703B1C08335D225A723B1C083306
:1004800000229A727B69013B7B6112E07A680F233C
:100490001340181CFFF7C4FF031C1A1C391C083139
:1004A0007B69CB181A707B681B097B607B69013BF9
:1004B0007B617B69002BE9DC3B1C0833181CFFF7D0
:1004C0009BFFBD4606B080BD80B582B000AF7860AE
:1004D000C0467B685A1E7A60002BFAD1BD4602B036
:1004E00080BDC04680B500AF164B164A126816494B
:1004F0000A431A60154B154A126803218A431A6091
:10050000134B91221A60134B91221A60124B9122C5
:100510001A60124B114A1268FE2149000A431A6000
:100520000F4B00221A600F4B02221A600E4B0E4A2C
:10053000126810218A431A600C4B0D4A1A60BD469E
:1005400080BDC04680800440402001001C40044023
:10055000784004407C4004408040044000800050CB
:10056000FC3F0050744004403882044000C0014009
:10057000010B000080B584B000AF786001227B6879
:10058000101C9840031CFB600B4B0B4A1168FA6867
:100590008020400412180A431A60C046074B1B68AB
:1005A000002BFBDA054B1B689B099B059B0D181C58
:1005B000BD4604B080BDC04600C0014004C001403B
:1005C00080B582B000AF78607B68012B0CD0022B25
:1005D00013D0002B1AD1104B1A680123134001D0FD
:1005E000012314E0002312E00B4B1A68022313408E
:1005F00001D001230BE0002309E0074B1A68042314
:10060000134001D0012302E0002300E00023181C66
:10061000BD4602B080BDC046FC3F015080B582B0EF
:1006200000AF786039607B68062B00D97DE07B687D
:100630009A003F4BD3181B689F463B68012B06D19D
:100640003C4B3C4A126804210A431A606DE0394B66
:10065000384A126804218A431A6066E03B68012B1D
:1006600006D1344B334A126808210A431A605CE011
:10067000304B304A126808218A431A6055E03B68C3
:10068000012B06D12B4B2B4A126810210A431A600A
:100690004BE0284B274A126810218A431A6044E035
:1006A0003B68012B06D1234B224A126820210A43C2
:1006B0001A603AE01F4B1F4A126820218A431A60D1
:1006C00033E03B68012B06D11A4B1A4A12684021CD
:1006D0000A431A6029E0174B164A126840218A43E0
:1006E0001A6022E03B68012B06D1124B114A1268B6
:1006F00080210A431A6018E00E4B0E4A12688021CE
:100700008A431A6011E03B68012B07D1094B094A63
:100710001268802149000A431A6005E0054B054A2A
:100720001168054A0A401A60C046BD4602B080BD45
:1007300048090000FC3F0050FFFEFFFF90B585B068
:1007400000AF786039600023FB600023BB6020E0CD
:10075000C046FFF711FE031C002BFAD0BB687A6875
:10076000D418FFF73DFE031CDBB22370BB687A6828
:10077000D3181B78242B02D10123FB6009E0BB684E
:100780000133BB60BA683B689A4202DB01235B42DB
:1007900003E0FB68002BDBD00023181CBD4605B02E
:1007A00090BDC04680B58EB000AF3B1D181C142113
:1007B000FFF7C4FF031C002B61DB3B1D1B78692B7B
:1007C00017D002DC612B05D059E06C2B2FD06F2B9A
:1007D0001ED054E03B1D5B78303B7B637B6B181C69
:1007E000FFF7C8FE031C3B633B6B181CFFF738FE8A
:1007F00045E03B1D5B78303BFB62FB6A181CFFF752
:10080000DFFE031CBB62BB6A181CFFF729FE36E043
:100810003B1D5B78303B7B623B1D9B78303B3B62F2
:100820007A6A3B6A101C191CFFF7F8FE27E03B1D93
:100830005B78303BFB613B1D9B78303B642253432C
:10084000BB613B1DDB781A1C303A131C9B009B18C4
:100850005B00BA69D318BB613B1D1B79303BBA6999
:10086000D318BB61FB69032B02D1064BBA691A602E
:10087000FB69052B03D1044BBA691A60FFE7BD463B
:100880000EB080BD040000100800001080B500AF5D
:10089000144B1B685A1C134B1A60124B1B68632BBA
:1008A0000ADD104B00221A6003200121FFF7B6FE7B
:1008B00005200121FFF7B2FE0B4B1A68094B1B689C
:1008C0009A4203DC03200021FFF7A8FE074B1A68B9
:1008D000044B1B689A4203DC05200021FFF79EFEB3
:1008E000BD4680BD0000001004000010080000108C
:1008F00080B500AF074B074A126807210A431A6008
:10090000054B064A1A60064B05221A6062B6BD46C0
:1009100080BDC04610E000E014E000E0BF1200001F
:1009200018E000E080B500AFFFF7E2FFFFF7DAFD67
:10093000FFF72CFC62B6034B181CFFF75DFDFFF7B9
:0809400031FFFCE7640900002F
:100948003A0600005C0600007E060000A0060000D3
:10095800C2060000E40600000607000048656C6C4B
:080968006F20576F726C6400F0
:00000001FF
